:020000040800F2
:100000007004002045010008F908000849070008AD
:10001000F50800088D020008FD150008000000002A
:100020000000000000000000000000009110000827
:100030007104000800000000250E0008C11100082E
:100040005F0100085F0100085F0100085F01000810
:100050005F0100085F0100085F0100085F01000800
:100060005F0100085F0100085F0100085F010008F0
:100070005F0100085F0100085F0100085F010008E0
:100080005F0100085F0100085F0100085F010008D0
:100090005F0100085F0100085F0100085F010008C0
:1000A0005F0100085F0100085F0100085F010008B0
:1000B0005F0100085F0100085F0100085F010008A0
:1000C0005F0100085F0100085F0100085F01000890
:1000D0005F01000885120008DD1200085F010008BA
:1000E0005F0100085F0100085F0100085F01000870
:1000F0005F0100085F0100085F0100085F01000860
:100100005F0100085F0100085F0100085F0100084F
:100110005F0100085F0100085F0100085F0100083F
:100120005F0100085F0100085F0100085F0100082F
:10013000DFF80CD000F04AF800480047851A0008A4
:10014000700400200648804706480047FEE7FEE7A7
:10015000FEE7FEE7FEE7FEE7FEE7FEE7FEE7FEE777
:10016000E9110008310100082DE9F05F0546002083
:1001700092469B4688460646814640241BE0284618
:1001800041464746224600F042F853465A46C01AB6
:10019000914110D311461846224600F029F82D1A35
:1001A00067EB01084F4622460120002100F020F8AD
:1001B00017EB00094E41201EA4F10104DFDC484684
:1001C00031462A464346BDE8F09F0000064C074DE5
:1001D00006E0E06840F0010394E807009847103417
:1001E000AC42F6D3FFF7A8FF281F0008481F0008FD
:1001F000202A04DB203A00FA02F1002070479140E7
:10020000C2F1200320FA03F3194390407047202ADB
:1002100004DB203A21FA02F00021704721FA02F3B0
:10022000D040C2F1200291400843194670470000B7
:1002300010B504462CB94FF40071054800F080FA5F
:1002400004E04FF40071024800F07CFA10BD000099
:100250000010014008B50121102000F007FE4FF406
:100260000070ADF8000003208DF8020010208DF81A
:1002700003006946044800F0CFF94FF400710248CA
:1002800000F060FA08BD00000010014000BFFEE76A
:100290002DE9F0410746884615460421052000F067
:1002A000D9F80021012001F0ABF980210A2000F0EB
:1002B000F0FE002405E0395D092001F0A1F9601C81
:1002C000C4B24445F7DB0321012001F099F9FF2472
:1002D00000BF052000F0B4FE0646601EC4B21CB18B
:1002E00006F004000028F4D0222000F0A9FE2870B7
:1002F000212000F0A5FE6870BDE8F08170B50446CD
:10030000002600250021204600F010F8C5B2052D7A
:1003100009D12146012000F072FC05460DB90126E5
:1003200001E04FF0FF36304670BD00002DE9FC477C
:1003300006468946002400252FA103C9CDE9000106
:100340003146522000F085FC074667B900BF06E041
:1003500016F8048041462AA001F0A0F9641C022C82
:10036000F6DB012510E03146522000F072FC074612
:1003700047B9002402E016F80480641C022CFADB62
:10038000012501E04FF0FF35304600F02FFB074616
:100390006FB9002407E016F80480B9F1000F01D00E
:1003A00009F80480641C042CF5DB6D1C00E06D1E54
:1003B000304600F0B5FC07460FB96D1C00E06D1E1D
:1003C000032D15D133466A460121602000F046FB1B
:1003D00007460FB96D1C00E06D1E33466A460121C9
:1003E000612000F03BFB07460FB96D1C00E06D1E5D
:1003F0002846BDE8FC870000FFFFFFFFFFFF00006D
:10040000255800000749084A916051600021116099
:10041000002003E00021034A1154401C0A28F9DBA4
:10042000704700005F0000203C0000200749084A98
:100430009160516000211160002003E00021034A17
:100440001154401C0A28F9DB7047000055000020B9
:100450003000002070B505460C460026284600F006
:10046000EFFD064626EA0401284601F0C9F870BDF2
:100470007047024600210AE0505C4F2805D1481C15
:10048000105C4B2801D101207047481C81B2B1F5A6
:10049000007FF1DB0020F7E710B50446204600F0AE
:1004A0004BFF10BD10B500BF00F094F80028FBD042
:1004B000642001F08DFA1CA000F09EF801282ED1D6
:1004C0004FF47A7001F084FA1CA000F095F801282E
:1004D00025D14FF47A7001F07BFA4FF47A7001F075
:1004E00077FA4FF47A7001F073FA1EA000F084F8E6
:1004F0004FF47A7001F06CFA1DA000F07DF801282D
:100500000DD14FF47A7001F063FA1DA000F074F879
:10051000012804D11FA001F0C1F8012010BD25A0C1
:1005200001F0BCF80020F9E741542B43574D4F44EC
:10053000455F4445463D320D0A00000041542B43BF
:10054000575341505F4445463D22585A5358542210
:100550002C22313233343536373839222C352C348D
:100560000D0A000041542B43494653520D0A000026
:1005700041542B4349504D55583D310D0A00000060
:1005800041542B4349505345525645523D310D0A73
:100590000000000041505F6D6F646C65206973203E
:1005A0004F4B2121212121212121212121210D0A0E
:1005B00000000000776966695F636F6E6669677542
:1005C0007265206661696C656421212121212121E8
:1005D000210D0A0010B505A0FFF75EFF0548FFF7E3
:1005E00048FF012800D110BD0020FCE741540D0A4E
:1005F000000000005500002010B504462046FFF71B
:100600004BFF0448FFF735FF012800D110BD002043
:10061000FCE70000550000202DE9F04102460025CE
:100620000026002000230024002791F803C00CF0CE
:100630000F0591F803C00CF0100CBCF1000F03D0B3
:1006400091F802C04CEA050591F800C0BCF1000F1A
:1006500031D0146800202BE04FF0010C0CFA00F3AD
:10066000B1F800C00CEA03069E4220D183004FF08F
:100670000F0C0CFA03F7BC4305FA03FC4CEA040424
:1006800091F803C0BCF1280F06D14FF0010C0CFA11
:1006900000FCC2F814C00AE091F803C0BCF1480F96
:1006A00005D14FF0010C0CFA00FCC2F810C0401C40
:1006B0000828D1D31460B1F800C0BCF1FF0F34DDBD
:1006C000546800202EE000F1080C4FF0010808FAF1
:1006D0000CF3B1F800C00CEA03069E4221D183005E
:1006E0004FF00F0C0CFA03F7BC4305FA03FC4CEA7D
:1006F000040491F803C0BCF1280F05D100F1080CE7
:1007000008FA0CF8C2F8148091F803C0BCF1480F45
:1007100007D100F1080C4FF0010808FA0CF8C2F8F4
:100720001080401C0828CED35460BDE8F0810246FA
:10073000002093680B400BB1012000E000207047BF
:10074000416170470161704700BFFEE708B50121B4
:10075000042000F08BFB0120ADF8000048208DF84C
:10076000030069460148FFF757FF08BD0008014034
:1007700070B505460C46012D04D0022D0FD0032D77
:1007800023D117E02CB94FF480711148FFF7D8FF3F
:1007900004E04FF480710E48FFF7D4FF15E024B950
:1007A00080210B48FFF7CCFF03E080210848FFF7CA
:1007B000C9FF0AE024B940210548FFF7C1FF03E063
:1007C00040210348FFF7BEFF00BF00BF70BD00001F
:1007D0000010014008B50121102000F047FB4FF444
:1007E000E070ADF8000003208DF8020010208DF8B5
:1007F000030069460448FFF70FFF4FF4E071024819
:10080000FFF7A0FF08BD00000010014010B5002454
:1008100023E000210120FFF7ABFF142001F0D8F8FE
:1008200001210846FFF7A4FF142001F0D1F80020B1
:10083000FFF7FEFC00210220FFF79AFF142001F0D1
:10084000C7F801210220FFF793FF142001F0C0F840
:100850000120FFF7EDFC601CC4B2042CD9DB10BDF5
:1008600010B50446412C25D108210846FFF7F2FDBA
:100870003D21112000F0C4FE8621172000F0C0FEAB
:100880007F21262000F0BCFE1E212D2000F0B8FEA6
:1008900000212C2000F0B4FE8D212A2000F0B0FEB3
:1008A0003E212B2000F0ACFE0A2001F091F800F070
:1008B00090F801E0FF2010BD0020FCE708B5012101
:1008C000102000F0D3FA4FF40050ADF800001020D3
:1008D0008DF8030003208DF8020069460448FFF7F5
:1008E0009BFE4FF400510248FFF72CFF08BD0000AB
:1008F0000010014000BFFEE77047000070B5002106
:1009000000230F22C47804B3154C246804F4E06477
:10091000C4F5E064210AC1F10403CA40447804FA32
:1009200003F184781440214309010E4C0678A15547
:10093000047804F01F050124AC4005786D11AD006A
:1009400005F1E025C5F8004109E0047804F01F0531
:100950000124AC40044D0678761145F8264070BD60
:100960000CED00E000E400E080E100E0024901431A
:10097000024A1160704700000000FA050CED00E02B
:1009800008B54FF4A060FFF7F1FF25208DF80000B7
:1009900001208DF8010000208DF8020001208DF863
:1009A00003006846FFF7AAFF26208DF8000000200C
:1009B0008DF801008DF8020001208DF803006846D3
:1009C000FFF79CFF08BD10B503211420FFF742FD7F
:1009D00010BD10B5142000F033FB044604F00300F2
:1009E00018B90321142000F054FB10BDF0B587B0F6
:1009F0000546002708210846FFF72CFD00210D20A1
:100A000000F0FEFD80210E20FFF724FD93208DF8DD
:100A1000040020208DF8050006A801AB022201A9E0
:100A200000900C2000F052F8064686B9002407E03A
:100A300001A8005D285501A8005D4740601CC4B2B4
:100A4000042CF5DB01A8005DB84200D0FE26802111
:100A50000E2000F01EFB304607B0F0BD2DE9F0433C
:100A600087B006460F46904699468DF804608DF88B
:100A70000570002406E018F8041001AAA01C115407
:100A8000601CC4B2062CF6DB002407E019F8041041
:100A900001AA04F108001154601CC4B2062CF5DB55
:100AA00006A801AB0C2201A900900E2000F00EF860
:100AB00005462DB9082000F0C3FA00F0080000B97F
:100AC000FE250025284607B0BDE8F0832DE9FE4F3E
:100AD0000646884691469A46DDF830B0FE200290E0
:100AE0000020019000900C2E06D00E2E09D112206D
:100AF00001901020009005E07720019030200090B8
:100B000000E000BF00BF019840F08001022000F02B
:100B100077FD80210420FFF79DFC0021012000F0DB
:100B20006FFD80210A2000F0B4FA002505E018F8D6
:100B30000510092000F064FD6D1C4D45F7D33146CA
:100B4000012000F05DFD0C2E03D180210D2000F06E
:100B5000A0FA4FF4FA6500BF042000F071FA0446D1
:100B60006D1E35B104F0010018B90098204000282E
:100B7000F2D080210D20FFF76DFC95B3062000F028
:100B80005FFA00F01B0068BB002002900198204033
:100B900000F0010008B1FF2002900C2E24D10A20A1
:100BA00000F04EFA04460C2000F04AFA00F0070765
:100BB0002FB1601E07EBC000CBF8000002E0E000A0
:100BC000CBF8000004B90124122C00DD122400250A
:100BD00005E0092000F034FA0AF805006D1CA54272
:100BE000F7D301E0FE20029080210C2000F051FAA2
:100BF0000021012000F004FD0298BDE8FE8FF0B551
:100C000087B005460E4630208DF804008DF805505B
:100C10000DF10602022101A8FFF73AFB06A801AB7D
:100C2000042201A900900C20FFF750FF074667B986
:100C30000698902809D1002404E001A8005D3055F1
:100C4000601CC4B2102CF8DB00E0FE27384607B069
:100C5000F0BD70B588B005460C4608210846FFF780
:100C6000F9FB07210D2000F0CBFC0321142000F03C
:100C700010FA8DF8085007A802AB012202A90090D3
:100C80000C20FFF723FF06464EB90798102806D11F
:100C90009DF8080020709DF80900607000E0FE26B5
:100CA000304608B070BD000010B54FF400511B482D
:100CB000FFF748FD012000F0AFFE4FF40051174848
:100CC000FFF73EFD012000F0A7FE4FF4005113484E
:100CD000FFF738FD012000F09FFE0F21012000F0FA
:100CE0008FFC012000F098FE3D21112000F088FCCF
:100CF0001E212D2000F084FC00212C2000F080FC1F
:100D00008D212A2000F07CFC3E212B2000F078FC75
:100D10004021152000F074FC002010BD001001409F
:100D200070B588B0054693208DF8080070208DF8C6
:100D3000090000208DF80E0000240BE0295D02AAB6
:100D4000A01C11549DF80E00295D48408DF80E003E
:100D5000601CC4B2042CF1DB0DF10F02072102A8C4
:100D6000FFF796FA08210846FFF774FB07A802ABC5
:100D7000092202A900900C20FFF7A8FE064626B91A
:100D80000798182801D1002600E0FE26304608B05A
:100D900070BDF0B587B006460F46A0208DF8040060
:100DA0008DF805600DF10602022101A8FFF770FA27
:100DB00006A801AB042201A900900C20FFF786FED3
:100DC000054645B90698042805D19DF8040000F0B1
:100DD0000F000A2800D0FE250DBB002404E0385D7A
:100DE00001A90855601CC4B2102CF8DB05AA10211B
:100DF00001A8FFF74DFA06A801AB122201A9009045
:100E00000C20FFF763FE054645B90698042805D176
:100E10009DF8040000F00F000A2800D0FE252846A7
:100E200007B0F0BD704710B5FFF748FDFFF73CFF76
:100E3000FFF7C9FDFFF7CDFD4120FFF711FD64204D
:100E400000F0C6FD642000F0C3FD10BD29B1064AC4
:100E5000D2690243044BDA6104E0034AD269824357
:100E6000014BDA61704700000010024029B1064AC8
:100E700092690243044B9A6104E0034A92698243F7
:100E8000014B9A61704700000010024030B500210C
:100E90000022002400232D4D6D6805F00C0121B1C6
:100EA000042905D0082923D105E0294D056022E059
:100EB000274D05601FE0254D6D6805F47012234D28
:100EC0006D6805F48034022505EB92421CB9214D72
:100ED000554305600BE01D4D6D6805F400351DB1EF
:100EE0001C4D5543056002E0194D5543056002E075
:100EF000174D056000BF00BF144D6D6805F0F0018F
:100F00000909154D6B5C0568DD4045600F4D6D6846
:100F100005F4E061090A104D6B5C4568DD408560B1
:100F20000A4D6D6805F46051C90A0B4D6B5C45684C
:100F3000DD40C560054D6D6805F44041890B074DE6
:100F40006B5CC568B5FBF3F5056130BD0010024070
:100F500000127A0000093D0000000020100000206F
:100F600008B501211C20FFF781FF4FF4C050ADF8F8
:100F7000000003208DF8020010208DF80300694660
:100F80001248FFF749FB4FF48070ADF800000320D2
:100F90008DF8020010208DF8030069460C48FFF719
:100FA0003BFB0420ADF8000028208DF803006946C3
:100FB0000848FFF731FB4FF400610448FFF7C2FB1C
:100FC0004FF480510148FFF7BDFB08BD0008014008
:100FD000000C01400010014070B5044600250026B9
:100FE00024E04FF400611348FFF7AAFB04F08000EF
:100FF00028B14FF480711048FFF7A4FB04E04FF4D0
:1010000080710D48FFF79CFB6006040E4FF40061F1
:101010000848FFF797FB6806050E04210748FFF70D
:1010200086FB08B145F00105701CC6B2082ED8DB5E
:10103000284670BD00080140000C0140001001402E
:1010400070B5044600264FF480510B48FFF778FB3B
:101050007E2000EA440040F08005284600F012F8A7
:10106000002000F00FF806464FF480510248FFF7C9
:1010700069FB304670BD00000008014010B5FFF765
:101080006FFF10BD10B504462046FFF7A5FF10BD49
:10109000704770B505460C4600262846FFF7D0FF7E
:1010A000064646EA0401284600F0AAFA70BD10B5CB
:1010B00000F002F810BD00000CB500200190009077
:1010C0003348006840F480303149086000BF304840
:1010D000006800F4003000900198401C01900098D6
:1010E00018B90198B0F5A06FF1D12948006800F453
:1010F000003010B10120009001E000200090009825
:10110000012843D12348006840F0100021490860BD
:101110000846006820F0030008600846006840F0B8
:10112000020008601A48406819494860084640684B
:1011300048600846406840F480604860084640685F
:1011400020F47C1048600846406840F4E81048608D
:101150000846006840F08070086000BF0C480068D6
:1011600000F000700028F9D00948406820F0030022
:10117000074948600846406840F00200486000BFE8
:101180000348406800F00C000828F9D10CBD0000AD
:101190000010024000200240042808D14FF0E02156
:1011A000096941F004014FF0E022116107E04FF0BE
:1011B000E021096921F004014FF0E022116170473C
:1011C0007047000010B56FF00400FFF7E5FF09203D
:1011D0000349086042F228300249086010BD00004F
:1011E000280000202C00002010B51348006840F0B3
:1011F00001001149086008464068104908400E493E
:101200004860084600680E4908400B4908600846D7
:10121000006820F4802008600846406820F4FE0042
:1012200048604FF41F008860FFF741FF4FF00060F7
:101230000449086010BD0000001002400000FFF8E3
:10124000FFFFF6FE08ED00E010B5FFF7C3FAFFF769
:10125000B9FFFEF7FFFF00F06DF94FF4E1310748E9
:1012600000F0A0F9FFF78CFBFFF770FA4FF4E131C3
:10127000034800F097F9FFF715F910BD0038014059
:101280000044004010B540F22551114800F08CF8A0
:1012900001281CD10E4800F043F90E4989680870F6
:1012A0000C48806801780A4800F03FF909488068D6
:1012B000401C0849886008460068401C08600846D1
:1012C00000680A2803D9044888600020086010BD1F
:1012D000003801403C0000205F00002010B540F2C3
:1012E0002551114800F060F801281CD10E48001D5E
:1012F00000880E49896808700C48806801780C489D
:1013000000F013F909488068401C084988600846C5
:101310000068401C0860084600680A2803D30020C3
:1013200008600448886010BD004400403000002080
:10133000003801405500002010B504460BE014F8B9
:10134000011B074800F0F1F800BF4021044800F0FD
:101350001EF80128F9D120780028F0D110BD000036
:101360000044004001F40072B2F5007F00D100BFDC
:10137000CA430280704721B1828942F400528281BF
:1013800004E082894DF6FF731A408281704702465D
:101390000020B1F5007F00D100BF13880B400BB1D6
:1013A000012000E00020704770B5024600240023B1
:1013B0000025002040F66A16B14200D100BFC1F3FB
:1013C000421501F01F03012606FA03F3012D02D195
:1013D0009689334006E0022D02D1168A334001E09F
:1013E000968A33400C12012606FA04F4168834401B
:1013F00013B10CB1012000E0002070BDF0B5034630
:10140000002400260025002040F66A17B94200D1CA
:1014100000BF1846C1F3421401F01F06012707FA66
:1014200006F5012C01D10C3004E0022C01D1103062
:1014300000E014301AB107682F43076002E0076824
:10144000AF430760F0BD00002DE9F04786B00546C8
:101450000E460024A24600BFA1460027B08900B175
:1014600000BF2F462C8A4CF6FF700440F0880443DE
:101470002C82AC894EF6F3100440B08831890843C1
:10148000718908430443AC81AC8A4FF6FF400440A5
:10149000B0890443AC8201A8FFF7F8FC1F488742DB
:1014A00002D1DDF810A001E0DDF80CA0A88900F45D
:1014B000004040B10AEBCA0000EB0A103168490055
:1014C000B0FBF1F807E00AEBCA0000EB0A10316844
:1014D0008900B0FBF1F86420B8FBF0F004012009AA
:1014E000642101FB1089A88900F4004040B132203A
:1014F00000EBC900B0FBF1F000F00700044308E086
:10150000322000EB09106421B0FBF1F000F00F0075
:1015100004432C8106B0BDE8F0870000003801408C
:1015200001468888C0F308007047C1F30802828032
:101530007047000008B501210520FFF797FC4FF424
:101540008060ADF8000004208DF80300694614485F
:10155000FFF762F84FF40070ADF8000003208DF83B
:10156000020018208DF8030069460D48FFF754F873
:101570000820ADF8000004208DF8030069460848F3
:10158000FFF74AF80420ADF8000003208DF80200B0
:1015900018208DF8030069460148FFF73DF808BDA3
:1015A000000801407FB505460C4601218803FFF77E
:1015B0005DFC01214804FFF749FC00940020ADF8D0
:1015C0000400ADF80600ADF808000C20ADF80A00E4
:1015D0000020ADF80C0069462846FFF735FF402192
:1015E0002846FFF7BFFE012240F225512846FFF7AB
:1015F00005FF01212846FFF7BEFE7FBD00BFFEE7C5
:1016000070B504460D464FF480510948FFF798F82D
:101610007E2000EA44063046FFF734FD2846FFF7F7
:1016200031FD4FF480510248FFF78CF870BD000087
:101630000008014070B5044600250026214601201F
:10164000FFF7A7FB064626B9012504A000F026F8FF
:1016500001E04FF0FF35284670BD0000B3E4D6B579
:10166000B3C9B9A60D0A000070B5044600250026CE
:1016700021460120FFF78DFB064626B9012504A06F
:1016800000F00CF801E04FF0FF35284670BD000077
:10169000BFDBBFEEB3C9B9A60D0A00000FB4054BFE
:1016A00010B503A9044A029800F02CF810BC5DF8AC
:1016B00014FB0000611A0008480000200FB4084B1A
:1016C00010B504A902AA039800F01CF8044602A968
:1016D000002000F077F9204610BC5DF814FB0000F4
:1016E000C519000802E008C8121F08C1002AFAD173
:1016F00070477047002001E001C1121F002AFBD192
:10170000704700002DE9FF4F8DB09B460F46044601
:10171000002606E025280BD05A460F999047641CF6
:10172000761C20780028F5D111B03046BDE8F08F46
:101730000025A8460122984900E0054314F8013F1E
:10174000203B02FA03F00842F7D120782E2817D167
:1017500014F8010F45F004052A280ED06FF02F026F
:101760002078A0F1300109290AD808EB880102EBA2
:10177000410100EB0108641CF2E757F8048B641C7C
:1017800020786C280DD004DC4C2812D06A2811D1A6
:1017900004E074280DD07A280CD10AE045F4001535
:1017A00007E0617845F48015814202D1641C05F59B
:1017B0008015641C2278692A45D008DC002AB3D041
:1017C000582A69D0632A10D0642A08D13BE0702AD5
:1017D00067D0732A13D0752A5CD0782A5CD0104663
:1017E0005A460F999047761CD3E017F8040B8DF8F2
:1017F000000000208DF80100E946012003E057F8C1
:10180000049B4FF0FF3069074FF0000501D40AE058
:101810006D1C45450DDA8542FADB19F805100029E3
:10182000F6D106E06D1C8542FCDB19F80510002995
:10183000F8D12E4404E019F8010B5A460F9990474D
:101840006D1EF8D2A5E00A200021CDE90801C5F3FC
:10185000025002280DD001CFC117031E71F1000301
:101860000DDA4FF0000CD0EB0C006CEB01012D23D6
:1018700008E0FF1D27F00707F7E80201EDE72B0559
:1018800004D52B238DF8283001233BE0EB0739D01A
:101890002023F7E70A2000E010200021CDE908010D
:1018A00007E01020002145F00405CDE908014FF0C4
:1018B0000808C5F3025002280FD001CF00214FF0D5
:1018C000000A2B071FD5702A0DD0DDE908C38CF064
:1018D000100C5CEA030C0CD015E0FF1D27F0070785
:1018E000F7E80201EBE740228DF828204FF0010ACB
:1018F0000BE050EA010306D030238DF828308DF834
:10190000292002239A46582A04D024A20DF1200946
:101910000B9209E026A2F9E7DDE90823FEF724FC93
:101920000B9B9B5C09F8013D50EA0102F4D1ADEB41
:10193000090020300890680701D44FF00108089989
:10194000884502DDA8EB010000E00020804600256C
:1019500006E00AA85A46405D0F9990476D1C761C18
:101960005545F6DB04E030205A460F999047761C27
:10197000B8F10001A8F10108F5DC05E019F8010B48
:101980005A460F999047761C0899481E08900029DE
:10199000F4DC641CC5E60000092801003031323354
:1019A000343536373839616263646566000000009B
:1019B0003031323334353637383941424344454685
:1019C000000000000A68531C0B6010707047000094
:1019D0000021104A126842434FF0E0235A6100226E
:1019E0009A611A46126942F001021A6100BF4FF073
:1019F000E022116921B100BF01F48032002AF6D043
:101A00004FF0E02212694FF0E0231A6100229A6140
:101A1000704700002C0000200021104A1268424349
:101A20004FF0E0235A6100229A611A46126942F08F
:101A300001021A6100BF4FF0E022116921B100BF1D
:101A400001F48032002AF6D04FF0E02212694FF004
:101A5000E0231A6100229A617047000028000020EC
:101A600070B504460D46A1B20548FFF75EFD00BF04
:101A700040210348FFF78BFC0028F9D0204670BDB9
:101A8000003801400EB500250026EC4A07CA8DE853
:101A900007000024FFF7D8FBFFF7F0FAFFF7C3F9C0
:101AA000FEF7B0FCC9E100248DE0E548005D232885
:101AB00012D1082C10DAE248005DE2490870E049D2
:101AC000601C085CDF494870DD49A01C085CDD49EA
:101AD00088700020DA490855DA48007823286DD14B
:101AE000D84840783038C5B2D64880783038C6B249
:101AF00005EB850006EB4000D34908700021D34870
:101B0000FEF714FC0746052F58D1D148FEF7F6FB27
:101B1000012853D1CFA0FFF7C1FDCD480178CEA059
:101B2000FFF7BCFDCA480078C749097888420ADD3A
:101B3000C7480078C4490978401AC3490870084664
:101B4000FFF792FD02E0C9A0FFF7A8FDC048FEF72D
:101B5000D5FB012832D1BE480178CAA0FFF79EFD0F
:101B60000020B8490870BA480278CBA16846FFF750
:101B7000A5FDB748007863280FDDC8A0FFF7DCFBA0
:101B8000CBA0FFF7D9FBCFA0FFF7D6FB6420FFF770
:101B90001FFF6846FFF7D0FB0EE0CFA0FFF7CCFB9E
:101BA000C3A0FFF7C9FBC7A0FFF7C6FB6420FFF780
:101BB0000FFF6846FFF7C0FBFEF728FE092C01D196
:101BC000FEF734FC641C0A2CFFF66FAF4FF47A70FA
:101BD000FFF7FEFE4FF47A70FFF7FAFE0024ECE008
:101BE000C248005D242803D0C048005D232812D1DC
:101BF000082C10DABD48005DBD490870BB49601C67
:101C0000085CBB494870B949A01C085CB849887099
:101C10000020B6490855B648007823286AD1B44850
:101C200040783038C5B2B24880783038C6B205EB5B
:101C3000850006EB40008449087000218348FEF7C8
:101C400075FB0746052F55D18148FEF757FB012844
:101C500050D17F48017880A0FFF720FD7C480078B4
:101C60007949097888420ADD794800787649097807
:101C7000401A754908700846FFF7F6FC02E07BA0A1
:101C8000FFF70CFD7248FEF739FB012832D170488E
:101C900001787CA0FFF702FD0020954908706C4890
:101CA00002787DA16846FFF709FD6948007863283E
:101CB0000FDD7AA0FFF740FB7DA0FFF73DFB81A081
:101CC000FFF73AFB6420FFF783FE6846FFF734FB1B
:101CD0000EE081A0FFF730FB86A0FFF72DFB8AA066
:101CE000FFF72AFB6420FFF773FE6846FFF724FB2B
:101CF000FEF78CFD7E480078242859D17C48407836
:101D00003038C5B27A4880783038C6B205EB8500E5
:101D100006EB40004C4908704D48FEF7EFFA0128E9
:101D200046D14B4801784CA0FFF7B8FC48480078F2
:101D3000454909780844444908700846FFF77AFC89
:101D40004348FEF7DBFA012832D1414801784DA023
:101D5000FFF7A4FC0020664908703D4802784EA1B8
:101D60006846FFF7ABFC3A48007863280FDD4BA0CC
:101D7000FFF7E2FA4EA0FFF7DFFA52A0FFF7DCFA16
:101D80006420FFF725FE6846FFF7D6FA0EE052A062
:101D9000FFF7D2FA57A0FFF7CFFA5BA0FFF7CCFA14
:101DA0006420FFF715FE6846FFF7C6FAFEF72EFD22
:101DB000092C01D1FEF726FB641C0A2CFFF610AF9C
:101DC00000212248FEF7B2FA0746052F35D12048F8
:101DD000FEF794FA012830D11EA0FFF75FFC1C48E3
:101DE00001781EA0FFF75AFC194802782AA168461C
:101DF000FFF764FC1648007863280FDD27A0FFF783
:101E00009BFA2BA0FFF798FA2EA0FFF795FA642013
:101E1000FFF7DEFD6846FFF78FFA0EE02EA0FFF712
:101E20008BFA34A0FFF788FA37A0FFF785FA642011
:101E3000FFF7CEFD6846FFF77FFA34E61C1F000867
:101E4000550000201E0000201D000020140000206E
:101E50004C0000200A000000D4ADC0B4BFA8D6D00A
:101E6000D3E0B6EE203D2025640A0000D3E0B6EEB4
:101E7000B2BBD7E3A3ACC7EBBEA1BFECB3E4D6B50E
:101E80000A000000BFA8D6D0D7DCB6EECEAA203D0F
:101E90002025640A000000002564000041542B4303
:101EA000495053454E443D302C330D0A000000008C
:101EB00041542B43495053454E443D312C330D0A78
:101EC0000000000041542B43495053454E443D32DD
:101ED0002C330D0A0000000041542B434950534558
:101EE0004E443D302C320D0A000000005F000020FF
:101EF0002100002041542B43495053454E443D316D
:101F00002C320D0A0000000041542B434950534528
:101F10004E443D322C320D0A0000000030300000EB
:101F20000000000000000000481F00080000002022
:101F30004C000000E4160008941F00084C0000202C
:101F400024040000F416000800000000010203044D
:101F5000010203040607080902040608010203043B
:101F60000506070800000000000000000000000057
:101F700000000000000000000000000055000020EC
:101F800055000020000000005F0000205F000020DE
:041F9000000000004D
:0400000508000131BD
:00000001FF
